:100000000C945D000C9485000C9485000C94850084
:100010000C9485000C9485000C9485000C9485004C
:100020000C9485000C9485000C9485000C9485003C
:100030000C9485000C9485000C9485000C9485002C
:100040000C94C1040C9485000C948F040C946904E6
:100050000C9485000C9485000C9485000C9485000C
:100060000C9485000C94850000000008000201003B
:100070000003040700000000000000000000000072
:10008000250028002B0000000000240027002A0083
:10009000040404040404040402020202020203032E
:1000A0000303030301020408102040800102040836
:1000B00010200102040810200B0511241FBECFEFF1
:1000C000D8E0DEBFCDBF21E0A2E3B1E001C01D92C8
:1000D000A03FB207E1F711E0A0E0B1E0EEE8FDE0FB
:1000E00002C005900D92A233B107D9F710E0CDE51B
:1000F000D0E004C02197FE010E94BA06CC35D1079A
:10010000C9F70E9456050C94C5060C94000090E0B7
:10011000FC01EC55FF4F2491FC01E057FF4F849107
:10012000882399F090E0880F991FFC01EA57FF4F50
:10013000A591B491FC01E458FF4F859194918FB73C
:10014000F894EC91E22BEC938FBF08952FB7F894BD
:100150008091370190913801A0913901B0913A0115
:100160002FBF8093430190934401A0934501B09326
:100170004601E0913B01F0913C010484F585E02DBE
:100180008BE391E0099597FF26C02FB7F8948091F3
:10019000370190913801A0913901B0913A012FBFF8
:1001A0004091430150914401609145017091460195
:1001B000841B950BA60BB70B40913F01509140015A
:1001C000609141017091420184179507A607B70716
:1001D00080F28FEF9FEF0895FF920F931F93CF93BD
:1001E000DF9300D000D0CDB7DEB70E94A600FC019F
:1001F00097FD11C08D32910591F0C0970A9778F064
:10020000E0913B01F0913C010284F385E02D8BE30A
:1002100091E00995EACF60E070E0CB014CC020E0AE
:1002200030E0A901F12CE130F105F1F0ED32F105FA
:10023000C9F0CF01C0970A97B8F4AAE0B0E00E94D5
:100240007E068F01FF0F220B330BDC01CB01800FE9
:10025000911FA21FB31F9C01AD0120533109410919
:10026000510902C0FF24F394E0913B01F0913C015D
:100270000284F385E02D8BE391E029833A834B835D
:100280005C8309950E94A600FC01C09729813A81F0
:100290004B815C810A9738F2E130F10521F2FF20B1
:1002A00041F066277727CB01621B730B840B950BFC
:1002B00002C0CA01B9010F900F900F900F90DF910B
:1002C000CF911F910F91FF900895CF92DF92EF92FF
:1002D000FF920F931F93CF93DF936C017A018B01F1
:1002E000C0E0D0E0CE15DF0589F0D8016D918D0119
:1002F000D601ED91FC910190F081E02DC6010995A8
:10030000892B11F47E0102C02196ECCFC701DF9149
:10031000CF911F910F91FF90EF90DF90CF900895B4
:10032000FC01538D448D252F30E0842F90E0821BFB
:10033000930B541710F0CF96089501970895FC0180
:10034000918D828D981761F0828DDF01A80FB11D0C
:100350005D968C91928D9F5F9F73928F90E0089530
:100360008FEF9FEF0895FC01918D828D981731F0EA
:10037000828DE80FF11D858D90E008958FEF9FEF3E
:100380000895FC01918D228D892F90E0805C9F4F14
:10039000821B91098F73992708958BE391E00E9446
:1003A000C10121E0892B09F420E0822F0895FC018E
:1003B000848DDF01A80FB11DA35ABF4F2C91848DEE
:1003C00090E001968F739927848FA689B7892C9323
:1003D000A089B1898C9180648C93938D848D9813BE
:1003E00006C00288F389E02D80818F7D8083089587
:1003F000EF92FF920F931F93CF93DF93EC0181E075
:10040000888F9B8D8C8D981305C0E889F989808130
:1004100085FD24C0F62E0B8D10E00F5F1F4F0F736C
:100420001127E02E8C8DE8120CC00FB607FCFACF16
:10043000E889F989808185FFF5CFCE010E94D70137
:10044000F1CF8B8DFE01E80FF11DE35AFF4FF082D3
:100450000B8FEA89FB898081806207C0EE89FF8962
:100460006083E889F98980818064808381E090E0FD
:10047000DF91CF911F910F91FF90EF900895CF934F
:10048000DF93EC01888D8823C9F0EA89FB8980819C
:1004900085FD05C0A889B9898C9186FD0FC00FB66E
:1004A00007FCF5CF808185FFF2CFA889B9898C91AF
:1004B00085FFEDCFCE010E94D701E7CFDF91CF912D
:1004C000089580E090E0892B29F00E94CD018111F0
:1004D0000C940000089590E0FC01E859FF4F34911E
:1004E000FC01EC55FF4F2491FC01E057FF4FE491D4
:1004F000EE2309F43BC0332339F1333091F038F463
:100500003130A9F0323001F584B58F7D12C037301B
:1005100091F03830A1F03430B9F4809180008F7DB3
:1005200003C0809180008F77809380000DC084B5D8
:100530008F7784BD09C08091B0008F7703C0809110
:10054000B0008F7D8093B000F0E0EE0FFF1FE45805
:10055000FF4FA591B4918FB7F894EC91611103C04E
:1005600020952E2301C02E2B2C938FBF08953FB7CB
:10057000F8948091330190913401A0913501B091AC
:10058000360126B5A89B05C02F3F19F00196A11D85
:10059000B11D3FBFBA2FA92F982F8827820F911D19
:1005A000A11DB11DBC01CD0142E0660F771F881F60
:1005B000991F4A95D1F708958F929F92AF92BF925B
:1005C000CF92DF92EF92FF920E94B7024B015C0143
:1005D00084E6C82ED12CE12CF12C0E94B702DC015C
:1005E000CB0188199909AA09BB09883E9340A10546
:1005F000B10558F021E0C21AD108E108F10888EEEF
:10060000880E83E0981EA11CB11CC114D104E10422
:10061000F10419F7FF90EF90DF90CF90BF90AF906B
:100620009F908F900895CF93DF93EC0160E08E81CF
:100630000E946B0261E08E810E946B0260E08E81FD
:100640000E946B028BE891E00197F1F7DF91CF9167
:100650000895CF92DF92EF92FF920F931F93CF9363
:10066000DF937C016C0187E0C80ED11CC0E0D0E0B4
:10067000062F10E0B8010C2E02C0759567950A94FC
:10068000E2F76170F60181916F010E946B02219681
:10069000C430D10579F7C701DF91CF911F910F9138
:1006A000FF90EF90DF90CF900C941303CF92DF92E6
:1006B000EF92FF920F931F93CF93DF93EC01F62EEF
:1006C000642F8C810E946B028D818F3F19F060E056
:1006D0000E946B028F850F2D10E084FF25C06E01F4
:1006E00087E0C80ED11CE12CF12CB8010E2C02C001
:1006F000759567950A94E2F76170F60181916F0133
:100700000E946B02FFEFEF1AFF0A88E0E816F1047F
:1007100061F7CE01DF91CF911F910F91FF90EF9084
:10072000DF90CF900C941303B80184E07595679522
:100730008A95E1F7CE010E9429036F2DCE01DF914A
:10074000CF911F910F91FF90EF90DF90CF900C947D
:10075000290341E00E94560381E090E0089540E0C3
:100760000C945603EF92FF920F931F93CF93DF9356
:10077000EC01623018F08F8588608F876B8B1C8A44
:1007800080E48D8B80E18E8B80E58F8B8C810E9445
:1007900087008D818F3F11F00E9487008E810E941B
:1007A00087007E0187E0E80EF11C00E010E08F85F5
:1007B00084FD03C084E090E002C088E090E0081768
:1007C000190744F4F70181917F010E9487000F5FB0
:1007D0001F4FEDCF8BE39DE00197F1F760E08C8137
:1007E0000E946B0260E08E810E946B028D818F3FC0
:1007F00019F060E00E946B026F8564FD1DC063E02C
:10080000CE010E9429030BE416E4C8010197F1F719
:1008100063E0CE010E942903C8010197F1F763E06C
:10082000CE010E94290383E592E00197F1F762E08F
:10083000CE010E94290316C06062CE010E94AF0360
:100840008BE496E40197F1F76F856062CE010E9418
:10085000AF0383E592E00197F1F76F856062CE0107
:100860000E94AF036F856062CE010E94AF0384E0F7
:10087000888B6CE0CE010E94AF0361E0CE010E9444
:10088000AF038BE39FE10197F1F782E0898B66E08C
:10089000CE01DF91CF911F910F91FF90EF900C94BB
:1008A000AF03089580E090E00895009769F0FC019F
:1008B00001900020E9F73197AF01481B590BBC01AB
:1008C00088ED91E00C94650180E090E008950E942D
:1008D000C0061F920F920FB60F9211242F933F93D1
:1008E0004F935F936F937F938F939F93AF93BF9338
:1008F000EF93FF938BE391E00E94D701FF91EF917B
:10090000BF91AF919F918F917F916F915F914F9127
:100910003F912F910F900FBE0F901F9018951F922F
:100920000F920FB60F9211242F938F939F93EF93F3
:10093000FF93E0914B01F0914C018081E0915101D6
:10094000F091520182FD12C09081809154018F5F1D
:100950008F7320915501821751F0E0915401F0E01E
:10096000E55CFE4F958F8093540101C08081FF911B
:10097000EF919F918F912F910F900FBE0F901F902D
:1009800018951F920F920FB60F9211242F933F9339
:100990008F939F93AF93BF938091370190913801CC
:1009A000A0913901B0913A013091320123E0230F37
:1009B0002D3720F40196A11DB11D05C026E8230F97
:1009C0000296A11DB11D20933201809337019093AF
:1009D0003801A0933901B0933A018091330190918D
:1009E0003401A0913501B09136010196A11DB11DD0
:1009F0008093330190933401A0933501B093360175
:100A0000BF91AF919F918F913F912F910F900FBE0A
:100A10000F901F901895EBE3F1E01382128288EE9D
:100A200093E0A0E0B0E084839583A683B78384E05D
:100A300091E09183808385EC90E09587848784ECB6
:100A400090E09787868780EC90E0918B808B81EC9B
:100A500090E0938B828B82EC90E0958B848B86EC7C
:100A600090E0978B868B118E128E138E148EE8ED8C
:100A7000F1E01382128286E191E0918380838CE021
:100A800084838FEF85838BE0868387E0878386E08E
:100A9000808785E0818784E08287138614861586A7
:100AA0001686178661E0CF010C94B203CF93DF93D3
:100AB000CDB7DEB7A1970FB6F894DEBF0FBECDBF9E
:100AC000789484B5826084BD84B5816084BD85B529
:100AD000826085BD85B5816085BD80916E00816035
:100AE00080936E00109281008091810082608093DB
:100AF00081008091810081608093810080918000DD
:100B00008160809380008091B10084608093B10007
:100B10008091B00081608093B00080917A00846001
:100B200080937A0080917A00826080937A0080912D
:100B30007A00816080937A0080917A008068809347
:100B40007A001092C1008DE00E948700E0914B0175
:100B5000F0914C0182E08083E0914701F0914801DF
:100B60001082E0914901F0914A018FEC808310924C
:100B70005301E0914F01F091500186E08083E091B4
:100B80004D01F0914E01808180618083E0914D01A3
:100B9000F0914E01808188608083E0914D01F09159
:100BA0004E01808180688083E0914D01F0914E017B
:100BB00080818F7D808362E088ED91E00E94B203A6
:100BC0008EE191E00E9455048AE0882E912CA12CA0
:100BD000B12C8BE391E00E94C101181619060CF0AC
:100BE0008AC0E091EB01E23010F4E15001C0E1E095
:100BF000F0E0E852FE4F6489606888ED91E00E9461
:100C0000AF038BE291E00E945504E091EB01E230EA
:100C100010F4E15001C0E1E0F0E0E852FE4F6489D9
:100C20006A5F606888ED91E00E94AF030E94EC006B
:100C30006B017C0197FF26C0E091D801F091D901AA
:100C40000190F081E02D6DE288ED91E00995222779
:100C50003327A9012C193D094E095F0919A28E01FC
:100C60000F5D1F4FCA01B901A50194010E949806AA
:100C7000605DF80162938F01211531054105510531
:100C800089F715C09B01AC0119A28E010F5D1F4FA2
:100C9000CA01B901A50194010E949806605DF8019E
:100CA00062938F01211531054105510589F7C8016E
:100CB0000E9455040E94EC00643C79408105910536
:100CC0002CF061E08DE00E946B0283CF0E94EC006B
:100CD000643C7940810591050CF07BCF61E08DE0AB
:100CE0000E946B020E94DC0260E08DE00E946B02B9
:100CF0000E94DC026ECF0E9461026BCF0E948906C7
:100D0000A59F900DB49F900DA49F800D911D11245F
:100D10000895A29FB001B39FC001A39F700D811DD4
:100D20001124911DB29F700D811D1124911D0895F4
:100D3000A1E21A2EAA1BBB1BFD010DC0AA1FBB1FDF
:100D4000EE1FFF1FA217B307E407F50720F0A21B51
:100D5000B30BE40BF50B661F771F881F991F1A94BE
:100D600069F760957095809590959B01AC01BD01E8
:100D7000CF010895EE0FFF1F0590F491E02D099427
:0E0D800081E090E0F8940C94C506F894FFCF43
:100D8E0000000000F801650190013F02C1019F01C2
:100D9E00B30100000000A903650152045104475439
:100DAE00413A20547261696E657200414D4D4F3A61
:020DBE00200013
:00000001FF
